{
  "contractName": "InfoContract",
  "abi": [
    {
      "inputs": [
        {
          "name": "",
          "type": "address"
        }
      ],
      "payable": false,
      "stateMutability": "nonpayable",
      "type": "constructor"
    },
    {
      "constant": false,
      "inputs": [],
      "name": "get_var",
      "outputs": [
        {
          "name": "",
          "type": "uint256"
        },
        {
          "name": "",
          "type": "bytes32"
        },
        {
          "name": "",
          "type": "address[]"
        },
        {
          "name": "",
          "type": "bytes32[]"
        },
        {
          "name": "",
          "type": "bytes32[]"
        },
        {
          "name": "",
          "type": "bytes1[]"
        },
        {
          "name": "",
          "type": "bytes32[]"
        },
        {
          "name": "",
          "type": "address[]"
        }
      ],
      "payable": false,
      "stateMutability": "nonpayable",
      "type": "function"
    },
    {
      "constant": false,
      "inputs": [
        {
          "name": "data",
          "type": "bytes"
        },
        {
          "name": "_signed_data",
          "type": "bytes"
        }
      ],
      "name": "verify_center_publickey",
      "outputs": [
        {
          "name": "",
          "type": "bool"
        }
      ],
      "payable": false,
      "stateMutability": "nonpayable",
      "type": "function"
    },
    {
      "constant": false,
      "inputs": [
        {
          "name": "_user_id",
          "type": "address"
        },
        {
          "name": "_storage_node_pubkey",
          "type": "address[]"
        }
      ],
      "name": "save_public_key",
      "outputs": [],
      "payable": false,
      "stateMutability": "nonpayable",
      "type": "function"
    },
    {
      "constant": true,
      "inputs": [
        {
          "name": "_user_id",
          "type": "address"
        }
      ],
      "name": "get_storage_status",
      "outputs": [
        {
          "name": "",
          "type": "uint256"
        },
        {
          "name": "",
          "type": "bool"
        },
        {
          "name": "",
          "type": "address[]"
        }
      ],
      "payable": false,
      "stateMutability": "view",
      "type": "function"
    },
    {
      "constant": false,
      "inputs": [
        {
          "name": "_user_id",
          "type": "address"
        },
        {
          "name": "_user_data",
          "type": "bytes"
        },
        {
          "name": "_signed_data",
          "type": "bytes"
        }
      ],
      "name": "save_user_data",
      "outputs": [
        {
          "name": "",
          "type": "bool"
        }
      ],
      "payable": false,
      "stateMutability": "nonpayable",
      "type": "function"
    },
    {
      "constant": true,
      "inputs": [
        {
          "name": "_user_id",
          "type": "address"
        }
      ],
      "name": "get_user_data",
      "outputs": [
        {
          "name": "",
          "type": "bytes"
        },
        {
          "name": "",
          "type": "bytes32"
        },
        {
          "name": "",
          "type": "uint256"
        }
      ],
      "payable": false,
      "stateMutability": "view",
      "type": "function"
    }
  ],
  "bytecode": "0x608060405260018054600160a060020a03191673f3cc9ed32f425c3c3202539f400f5a5efc14d5cc17905534801561003657600080fd5b5060405160208061136f83390160405260008054600160a060020a03191633179055611308806100676000396000f3006080604052600436106100775763ffffffff7c010000000000000000000000000000000000000000000000000000000060003504166308f83822811461007c5780630ce90902146100e1578063b3b656e21461019a578063d1e7f35214610221578063e6794c64146102c8578063fe960fa31461035f575b600080fd5b34801561008857600080fd5b506040805160206004602480358281013584810280870186019097528086526100df968435600160a060020a0316963696604495919490910192918291850190849080828437509497506105379650505050505050565b005b3480156100ed57600080fd5b5060408051602060046024803582810135601f8101859004850286018501909652858552610186958335600160a060020a031695369560449491939091019190819084018382808284375050604080516020601f89358b018035918201839004830284018301909452808352979a9998810197919650918201945092508291508401838280828437509497506107549650505050505050565b604080519115158252519081900360200190f35b3480156101a657600080fd5b506101bb600160a060020a0360043516610ab5565b604051808481526020018315151515815260200180602001828103825283818151815260200191508051906020019060200280838360005b8381101561020b5781810151838201526020016101f3565b5050505090500194505050505060405180910390f35b34801561022d57600080fd5b50610242600160a060020a0360043516610b71565b6040805160208082018590529181018390526060808252855190820152845190918291608083019187019080838360005b8381101561028b578181015183820152602001610273565b50505050905090810190601f1680156102b85780820380516001836020036101000a031916815260200191505b5094505050505060405180910390f35b3480156102d457600080fd5b506040805160206004803580820135601f810184900484028501840190955284845261018694369492936024939284019190819084018382808284375050604080516020601f89358b018035918201839004830284018301909452808352979a999881019791965091820194509250829150840183828082843750949750610c329650505050505050565b34801561036b57600080fd5b50610374610cc9565b60405180898152602001886000191660001916815260200180602001806020018060200180602001806020018060200187810387528d818151815260200191508051906020019060200280838360005b838110156103dc5781810151838201526020016103c4565b5050505090500187810386528c818151815260200191508051906020019060200280838360005b8381101561041b578181015183820152602001610403565b5050505090500187810385528b818151815260200191508051906020019060200280838360005b8381101561045a578181015183820152602001610442565b5050505090500187810384528a818151815260200191508051906020019060200280838360005b83811015610499578181015183820152602001610481565b50505050905001878103835289818151815260200191508051906020019060200280838360005b838110156104d85781810151838201526020016104c0565b50505050905001878103825288818151815260200191508051906020019060200280838360005b838110156105175781810151838201526020016104ff565b505050509050019e50505050505050505050505050505060405180910390f35b600154600090600160a060020a0316331461055157600080fd5b81516002106105d0576040805160e560020a62461bcd02815260206004820152602d60248201527f4e6f6465207075626b6579206c656e677468206e6565647320746f206265206760448201527f726561746572207468616e203200000000000000000000000000000000000000606482015290519081900360840190fd5b8151600c1161064f576040805160e560020a62461bcd02815260206004820152602b60248201527f4e6f6465207075626b6579206c656e677468206e6565647320746f206265206c60448201527f657373207468616e203132000000000000000000000000000000000000000000606482015290519081900360840190fd5b81516001908116146106d1576040805160e560020a62461bcd02815260206004820152602260248201527f4e6f6465207075626b6579206c656e677468206e6565647320746f206265206f60448201527f6464000000000000000000000000000000000000000000000000000000000000606482015290519081900360840190fd5b5060005b81518110156106e6576001016106d5565b6040805160608101825242815260016020808301828152838501878152600160a060020a03891660009081526002808552969020855181559151938201805460ff191694151594909417909355915180519394929361074c938501929190910190611183565b505050505050565b600154600090819081908190819081908190600160a060020a0316331461077a57600080fd5b87516000106107f9576040805160e560020a62461bcd02815260206004820152602960248201527f4c656e206f66207369676e65642064617461206d75737420626520677265617460448201527f6572207468616e20300000000000000000000000000000000000000000000000606482015290519081900360840190fd5b8751604190061561087a576040805160e560020a62461bcd02815260206004820152602960248201527f4c656e206f66207369676e656420646174612063616e2062652064697669736960448201527f626c652062792036350000000000000000000000000000000000000000000000606482015290519081900360840190fd5b600260008b600160a060020a0316600160a060020a03168152602001908152602001600020955060009450886040518082805190602001908083835b602083106108d55780518252601f1990920191602091820191016108b6565b6001836020036101000a03801982511681845116808217855250505050505090500191505060405180910390209350600092505b87518310156109875761092761092189856041610f4c565b85611001565b9150600090505b600286015481101561097c576002860180548290811061094a57fe5b600091825260209091200154600160a060020a03838116911614156109745760019094019361097c565b60010161092e565b604183019250610909565b60048590558415806109a157506002868101546001010485105b156109af5760009650610aa8565b60606040519081016040528042815260200160028b6040518082805190602001908083835b602083106109f35780518252601f1990920191602091820191016109d4565b51815160209384036101000a600019018019909216911617905260405191909301945091925050808303816000865af1158015610a34573d6000803e3d6000fd5b5050506040513d6020811015610a4957600080fd5b5051815260209081018b9052600160a060020a038c16600090815260038252604090819020835181558383015160018201559083015180519192610a95926002850192909101906111f5565b5050506001808701805460ff1916905596505b5050505050509392505050565b6000806060610ac261126f565b600160a060020a038516600090815260026020818152604092839020835160608101855281548152600182015460ff16151581840152928101805485518185028101850187528181529495929492860193830182828015610b4c57602002820191906000526020600020905b8154600160a060020a03168152600190910190602001808311610b2e575b5050509190925250508151602083015160409093015190989297509550909350505050565b600160a060020a038116600090815260036020908152604080832060018082015482546002808501805487519581161561010002600019011691909104601f81018890048802850188019096528584526060979687969194918591830182828015610c1d5780601f10610bf257610100808354040283529160200191610c1d565b820191906000526020600020905b815481529060010190602001808311610c0057829003601f168201915b50505050509250935093509350509193909250565b600154600090600160a060020a031615801590610cc25750610cb082846040518082805190602001908083835b60208310610c7e5780518252601f199092019160209182019101610c5f565b6001836020036101000a0380198251168184511680821785525050505050509050019150506040518091039020611001565b600154600160a060020a039081169116145b9392505050565b6000806060806060806060806004546005546006600760086009600a600b85805480602002602001604051908101604052809291908181526020018280548015610d3c57602002820191906000526020600020905b8154600160a060020a03168152600190910190602001808311610d1e575b5050505050955084805480602002602001604051908101604052809291908181526020018280548015610d8f57602002820191906000526020600020905b81548152600190910190602001808311610d7a575b5050505050945083805480602002602001604051908101604052809291908181526020018280548015610de257602002820191906000526020600020905b81548152600190910190602001808311610dcd575b5050505050935082805480602002602001604051908101604052809291908181526020018280548015610e7c57602002820191906000526020600020906000905b82829054906101000a900460f860020a027effffffffffffffffffffffffffffffffffffffffffffffffffffffffffffff191681526020019060010190602082600001049283019260010382029150808411610e235790505b5050505050925081805480602002602001604051908101604052809291908181526020018280548015610ecf57602002820191906000526020600020905b81548152600190910190602001808311610eba575b5050505050915080805480602002602001604051908101604052809291908181526020018280548015610f2b57602002820191906000526020600020905b8154600160a060020a03168152600190910190602001808311610f0d575b50505050509050975097509750975097509750975097509091929394959697565b6060806000836040519080825280601f01601f191660200182016040528015610f7f578160200160208202803883390190505b509150600090505b83811015610ff85785858201815181101515610f9f57fe5b90602001015160f860020a900460f860020a028282815181101515610fc057fe5b9060200101907effffffffffffffffffffffffffffffffffffffffffffffffffffffffffffff1916908160001a905350600101610f87565b50949350505050565b60008281808061101b61101685836020610f4c565b611074565b925061102c61101685602080610f4c565b915061103b8460406001610f4c565b8051600090811061104857fe5b90602001015160f860020a900460f860020a0290506110698383838961107b565b979650505050505050565b6020015190565b604080518082018252601c8082527f19457468657265756d205369676e6564204d6573736167653a0a33320000000060208301908152925160009360f860020a870493928592849288928291908083835b602083106110eb5780518252601f1990920191602091820191016110cc565b51815160209384036101000a6000190180199092169116179052920193845250604080519384900382018420600080865285840180845282905260ff8a1686840152606086018f9052608086018e905291519096506001955060a080860195939450601f198201938290030191865af115801561116c573d6000803e3d6000fd5b5050604051601f1901519998505050505050505050565b8280548282559060005260206000209081019282156111e5579160200282015b828111156111e5578251825473ffffffffffffffffffffffffffffffffffffffff1916600160a060020a039091161782556020909201916001909101906111a3565b506111f192915061128e565b5090565b828054600181600116156101000203166002900490600052602060002090601f016020900481019282601f1061123657805160ff1916838001178555611263565b82800160010185558215611263579182015b82811115611263578251825591602001919060010190611248565b506111f19291506112c2565b6040805160608181018352600080835260208301529181019190915290565b6112bf91905b808211156111f157805473ffffffffffffffffffffffffffffffffffffffff19168155600101611294565b90565b6112bf91905b808211156111f157600081556001016112c85600a165627a7a7230582015a014cf475e6de27bbcdd0f3b4b08676536edb98ad6b90b896b8b784d5ce2eb0029",
  "source": "pragma solidity ^0.4.24;\n\ncontract InfoContract {\n    address owner;\n\taddress center_public_key = 0xf3cc9ed32f425c3c3202539f400f5a5efc14d5cc;\n\t\n    //公匙：0x60320b8a71bc314404ef7d194ad8cac0bee1e331\n    //sha3(msg): 0x4e03657aea45a94fc7d47ba826c8d667c0d1e6e33a64a036ec44f58fa12d6c45 (web3.sha3(\"abc\");)\n    //签名后的数据：0xf4128988cbe7df8315440adde412a8955f7f5ff9a5468a791433727f82717a6753bd71882079522207060b681fbd3f5623ee7ed66e33fc8e581f442acbcf6ab800\n    struct Storage4User {\n\t\tuint ts;\t\t\t\t\t//the time when user login\n\t\tbool locked;\t\t\t\t//user login\n\t\taddress[] public_keys;\t\t//public key of N storage node\n\t}\n\t\n\t/*\n\t\tUser Game Data\n\t*/\n\tstruct UserData {\n\t\t//the last time when data stored\n\t\tuint ts;\n\t\t\n\t\t//hash of user data\n\t\tbytes32 hash_of_data;\n\t\t\n\t\t//user origin data\n\t\tbytes data;\n\t}\n\t\n\tmapping (address => Storage4User) user_storages;\t\t// user id => storage node's public key\n\tmapping (address => UserData) user_datas;\t\t\t\t// user data\n\t\n\t//test\n\tuint valid_count_g;\n\tbytes32 a;\n\taddress[] b;\n\tbytes32[] r_g;\n\tbytes32[] s_g;\n\tbyte[] v_g;\n\tbytes32[] prefixedHash_g;\n\taddress[] result;\n\n\tmodifier onlyCenter(){\n\t\trequire(msg.sender == center_public_key);\n\t\t_;\n\t}\n\t\n\t/// Modifiers are a convenient way to validate inputs to\n    /// functions. `onlyBefore` is applied to `bid` below:\n    /// The new function body is the modifier's body where\n    /// `_` is replaced by the old function body.\n    modifier onlyBefore(uint _time) { require(now < _time); _; }\n    modifier onlyAfter(uint _time) { require(now > _time); _; }\n\t\n\tconstructor (InfoContract) public {\n\t\towner = msg.sender;\n\t}\n\t\n\tfunction get_var() public returns(uint, bytes32, address[], bytes32[], bytes32[], byte[], bytes32[], address[]){\n\t\treturn (valid_count_g, a, b, r_g, s_g, v_g, prefixedHash_g, result);\n\t}\n\n\t/*\n\t\tVerification center publickey\n\t*/\n\tfunction verify_center_publickey(bytes data, bytes _signed_data) public returns(bool) {\n\t\treturn center_public_key != address(0) && center_public_key == begin_decode(_signed_data, sha3(data));\n\t}\n\t\n    /*\n\t\tSave center pubkey per 24h\n    */\n    function save_public_key(address _user_id, address[] _storage_node_pubkey) public onlyCenter {\n\t\trequire(_storage_node_pubkey.length > 2, \"Node pubkey length needs to be greater than 2\");\n\t\trequire(_storage_node_pubkey.length < 12, \"Node pubkey length needs to be less than 12\");\n\t\trequire(_storage_node_pubkey.length % 2 == 1, \"Node pubkey length needs to be odd\");\n\t\t\n\t\tfor (uint256 i = 0; i < _storage_node_pubkey.length; i++){\n\t\t\t//_storage_node_pubkey[i];\n\t\t}\n\t\t\n\t\t//if (s.)1 days\n\t\t\n\t\tuser_storages[_user_id] = Storage4User(now, true, _storage_node_pubkey);\n    }\n    \n\t/*\n\t\tFor test\n\t */\n\tfunction get_storage_status(address _user_id) public view returns (uint, bool, address[]){\n\t\tStorage4User memory u = user_storages[_user_id];\n\t\t\n\t\treturn (u.ts, u.locked, u.public_keys);\n\t}\n\n    /*\n        Verify data authenticity per 24h\n    */\n    function save_user_data(address _user_id, bytes _user_data, bytes _signed_data) public onlyCenter returns (bool){\n        //bytes memory signedString =hex\"045c9cd05593e8eaac8259930c01f15be304870a1bbbcf1e3325b97f1fdfc55b058d47fc7f2bacfbf129afb4395188895d7d58494337254b653601ce3f15ea0201\";\n        //bytes memory user_data = \"abc\";\n\t\trequire(_signed_data.length > 0, \"Len of signed data must be greater than 0\");\n\t\trequire(_signed_data.length % 65 == 0, \"Len of signed data can be divisible by 65\");\n\t\t\n\t\tStorage4User storage s = user_storages[_user_id];\n\t\tuint valid_count = 0;\n\t\tbytes32 origin_hash = keccak256(_user_data);\n\n\t\tfor (uint256 i = 0; i < _signed_data.length; i += 65){\n\t\t\taddress temp_address = begin_decode(slice(_signed_data, i, 65), origin_hash);\n\t\t\t\n\t\t\tfor (uint256 j = 0; j < s.public_keys.length; j++){\n\t\t\t\tif(temp_address == s.public_keys[j]){\n\t\t\t\t\tvalid_count++;\n\t\t\t\t\tbreak;\n\t\t\t\t}\n\t\t\t}\n\t\t}\n\t\t\n\t\tvalid_count_g = valid_count;\n\t\t\n\t\tif(valid_count == 0 || (valid_count < (s.public_keys.length + 1) / 2)){\n\t\t\t//How to deal user data when verify failed\n\t\t\treturn false;\n\t\t}\n\t\t\n\t\tuser_datas[_user_id] = UserData(now, sha256(_user_data), _user_data);\n\t\ts.locked = false;\n\n\t\treturn true;\n\t}\n    \n\t/*\n\t\tRead User Game Data\n\t*/\n\tfunction get_user_data(address _user_id) public view returns (bytes, bytes32, uint){\n\t\t//msg.sender == publickey?\n\t\t\n\t\tUserData storage user = user_datas[_user_id];\n\t\t\n\t\treturn (user.data, user.hash_of_data, user.ts);\n\t}\n\t\n\t/*\n\tfunction get_storage_status(address _user_id) public view returns(){\n\t\t//return s.locked;\n\t}\n\t*/\n    //验签数据入口函数\n    function begin_decode(bytes signed_data, bytes32 origin_hash) internal returns (address){\n        bytes memory signedString = signed_data;\n        \n        bytes32  r = bytesToBytes32(slice(signedString, 0, 32));\n        bytes32  s = bytesToBytes32(slice(signedString, 32, 32));\n        byte  v = slice(signedString, 64, 1)[0];\n        \n        return ecrecoverDecode(r, s, v, origin_hash);\n    }\n    \n    //将原始数据按段切割出来指定长度\n    function slice(bytes memory data, uint start, uint len) internal pure returns (bytes){\n        bytes memory b = new bytes(len);\n        \n        for(uint i = 0; i < len; i++){\n            b[i] = data[i + start];\n        }\n        \n        return b;\n    }\n    \n    //使用ecrecover恢复公匙\n    function ecrecoverDecode(bytes32 _r, bytes32 _s, byte _v1, bytes32 _origin_hash) internal returns (address addr){\n        uint8 v = uint8(_v1);// + 27;\n        bytes memory prefix = \"\\x19Ethereum Signed Message:\\n32\";\n        bytes32 prefixedHash = keccak256(prefix, _origin_hash);\n\t\t\n        addr = ecrecover(prefixedHash, v, _r, _s);\n    }\n    \n    //bytes转换为bytes32\n    function bytesToBytes32(bytes memory source) internal pure returns (bytes32 result) {\n        assembly {\n            result := mload(add(source, 32))\n        }\n    }\n}",
  "sourcePath": "Games/contracts/InfoContract.sol",
  "compiler": {
    "name": "solc",
    "version": "0.4.24+commit.e67f0147.Emscripten.clang"
  },
  "schemaVersion": "2.0.1",
  "updatedAt": "2018-08-27T09:55:29.690Z"
}